{
  "_format": "hh-sol-artifact-1",
  "contractName": "VoteByMetaTransaction",
  "sourceName": "contracts/VoteByMetaTransaction.sol",
  "abi": [
    {
      "inputs": [
        {
          "internalType": "uint256",
          "name": "_voteId",
          "type": "uint256"
        },
        {
          "components": [
            {
              "internalType": "bytes",
              "name": "signature",
              "type": "bytes"
            },
            {
              "internalType": "address",
              "name": "signer",
              "type": "address"
            },
            {
              "internalType": "bytes",
              "name": "encodedVote",
              "type": "bytes"
            }
          ],
          "internalType": "struct VoteByMetaTransaction.VoteStorageWithEncoded[]",
          "name": "votesWithEncoded",
          "type": "tuple[]"
        }
      ],
      "name": "confirmingVotes",
      "outputs": [],
      "stateMutability": "nonpayable",
      "type": "function"
    },
    {
      "inputs": [
        {
          "internalType": "bytes",
          "name": "encodedVote",
          "type": "bytes"
        }
      ],
      "name": "decodeVote",
      "outputs": [
        {
          "components": [
            {
              "internalType": "address",
              "name": "signer",
              "type": "address"
            },
            {
              "internalType": "uint256",
              "name": "id",
              "type": "uint256"
            },
            {
              "internalType": "uint256",
              "name": "nonce",
              "type": "uint256"
            },
            {
              "internalType": "bool",
              "name": "flag",
              "type": "bool"
            },
            {
              "internalType": "string",
              "name": "message",
              "type": "string"
            }
          ],
          "internalType": "struct VoteByMetaTransaction.Vote",
          "name": "decodedVote",
          "type": "tuple"
        }
      ],
      "stateMutability": "pure",
      "type": "function"
    },
    {
      "inputs": [
        {
          "internalType": "address",
          "name": "_signer",
          "type": "address"
        },
        {
          "internalType": "uint256",
          "name": "_id",
          "type": "uint256"
        },
        {
          "internalType": "uint256",
          "name": "_nonce",
          "type": "uint256"
        },
        {
          "internalType": "bool",
          "name": "_flag",
          "type": "bool"
        },
        {
          "internalType": "string",
          "name": "_message",
          "type": "string"
        }
      ],
      "name": "encodeVote",
      "outputs": [
        {
          "internalType": "bytes",
          "name": "",
          "type": "bytes"
        }
      ],
      "stateMutability": "pure",
      "type": "function"
    },
    {
      "inputs": [
        {
          "internalType": "bytes32",
          "name": "_messageHash",
          "type": "bytes32"
        }
      ],
      "name": "getEthSignedMessageHash",
      "outputs": [
        {
          "internalType": "bytes32",
          "name": "",
          "type": "bytes32"
        }
      ],
      "stateMutability": "pure",
      "type": "function"
    },
    {
      "inputs": [
        {
          "internalType": "address",
          "name": "_signer",
          "type": "address"
        },
        {
          "internalType": "uint256",
          "name": "_voteId",
          "type": "uint256"
        },
        {
          "internalType": "uint256",
          "name": "_nonce",
          "type": "uint256"
        },
        {
          "internalType": "bool",
          "name": "_flag",
          "type": "bool"
        },
        {
          "internalType": "string",
          "name": "_message",
          "type": "string"
        }
      ],
      "name": "getMessageHash",
      "outputs": [
        {
          "internalType": "bytes32",
          "name": "",
          "type": "bytes32"
        }
      ],
      "stateMutability": "pure",
      "type": "function"
    },
    {
      "inputs": [
        {
          "components": [
            {
              "internalType": "address",
              "name": "signer",
              "type": "address"
            },
            {
              "internalType": "uint256",
              "name": "id",
              "type": "uint256"
            },
            {
              "internalType": "uint256",
              "name": "nonce",
              "type": "uint256"
            },
            {
              "internalType": "bool",
              "name": "flag",
              "type": "bool"
            },
            {
              "internalType": "string",
              "name": "message",
              "type": "string"
            }
          ],
          "internalType": "struct VoteByMetaTransaction.Vote",
          "name": "_vote",
          "type": "tuple"
        }
      ],
      "name": "getMessageHashFromVoteHelper",
      "outputs": [
        {
          "internalType": "bytes32",
          "name": "",
          "type": "bytes32"
        }
      ],
      "stateMutability": "pure",
      "type": "function"
    },
    {
      "inputs": [
        {
          "internalType": "uint256",
          "name": "_id",
          "type": "uint256"
        },
        {
          "internalType": "address",
          "name": "voter",
          "type": "address"
        }
      ],
      "name": "getVerifiedVotes",
      "outputs": [
        {
          "internalType": "bool",
          "name": "flag",
          "type": "bool"
        }
      ],
      "stateMutability": "view",
      "type": "function"
    },
    {
      "inputs": [
        {
          "internalType": "uint256",
          "name": "_proposalId",
          "type": "uint256"
        }
      ],
      "name": "getVotes",
      "outputs": [
        {
          "components": [
            {
              "internalType": "address",
              "name": "signer",
              "type": "address"
            },
            {
              "internalType": "uint256",
              "name": "id",
              "type": "uint256"
            },
            {
              "internalType": "uint256",
              "name": "nonce",
              "type": "uint256"
            },
            {
              "internalType": "bool",
              "name": "flag",
              "type": "bool"
            },
            {
              "internalType": "string",
              "name": "message",
              "type": "string"
            }
          ],
          "internalType": "struct VoteByMetaTransaction.Vote[]",
          "name": "",
          "type": "tuple[]"
        }
      ],
      "stateMutability": "view",
      "type": "function"
    },
    {
      "inputs": [],
      "name": "lastProposalId",
      "outputs": [
        {
          "internalType": "uint256",
          "name": "",
          "type": "uint256"
        }
      ],
      "stateMutability": "view",
      "type": "function"
    },
    {
      "inputs": [
        {
          "internalType": "bytes32",
          "name": "_ethSignedMessageHash",
          "type": "bytes32"
        },
        {
          "internalType": "bytes",
          "name": "_signature",
          "type": "bytes"
        }
      ],
      "name": "recoverSigner",
      "outputs": [
        {
          "internalType": "address",
          "name": "",
          "type": "address"
        }
      ],
      "stateMutability": "pure",
      "type": "function"
    },
    {
      "inputs": [
        {
          "internalType": "bytes",
          "name": "sig",
          "type": "bytes"
        }
      ],
      "name": "splitSignature",
      "outputs": [
        {
          "internalType": "bytes32",
          "name": "r",
          "type": "bytes32"
        },
        {
          "internalType": "bytes32",
          "name": "s",
          "type": "bytes32"
        },
        {
          "internalType": "uint8",
          "name": "v",
          "type": "uint8"
        }
      ],
      "stateMutability": "pure",
      "type": "function"
    },
    {
      "inputs": [
        {
          "internalType": "address",
          "name": "_signer",
          "type": "address"
        },
        {
          "internalType": "uint256",
          "name": "_voteId",
          "type": "uint256"
        },
        {
          "internalType": "uint256",
          "name": "_nonce",
          "type": "uint256"
        },
        {
          "internalType": "bool",
          "name": "_flag",
          "type": "bool"
        },
        {
          "internalType": "string",
          "name": "_message",
          "type": "string"
        },
        {
          "internalType": "bytes",
          "name": "signature",
          "type": "bytes"
        }
      ],
      "name": "verify",
      "outputs": [
        {
          "internalType": "bool",
          "name": "",
          "type": "bool"
        }
      ],
      "stateMutability": "pure",
      "type": "function"
    },
    {
      "inputs": [
        {
          "internalType": "uint256",
          "name": "",
          "type": "uint256"
        },
        {
          "internalType": "address",
          "name": "",
          "type": "address"
        }
      ],
      "name": "voteResults",
      "outputs": [
        {
          "internalType": "bool",
          "name": "",
          "type": "bool"
        }
      ],
      "stateMutability": "view",
      "type": "function"
    },
    {
      "inputs": [
        {
          "internalType": "uint256",
          "name": "",
          "type": "uint256"
        },
        {
          "internalType": "uint256",
          "name": "",
          "type": "uint256"
        }
      ],
      "name": "votes",
      "outputs": [
        {
          "internalType": "address",
          "name": "signer",
          "type": "address"
        },
        {
          "internalType": "uint256",
          "name": "id",
          "type": "uint256"
        },
        {
          "internalType": "uint256",
          "name": "nonce",
          "type": "uint256"
        },
        {
          "internalType": "bool",
          "name": "flag",
          "type": "bool"
        },
        {
          "internalType": "string",
          "name": "message",
          "type": "string"
        }
      ],
      "stateMutability": "view",
      "type": "function"
    }
  ],
  "bytecode": "0x6080604052600160005534801561001557600080fd5b506111c9806100256000396000f3fe608060405234801561001057600080fd5b50600436106100ca5760003560e01c8063bf8b83a81161007c578063bf8b83a8146101cb578063c6e36a32146101eb578063c88d70f01461020f578063f144320b1461023d578063fa5408011461025d578063fda6634114610270578063ff9810991461028357600080fd5b80633145fdbe146100cf57806357e71d00146100e457806374cb30411461013257806397aba7f914610149578063a607826f14610174578063a7bb580314610187578063b4e0711f146101b8575b600080fd5b6100e26100dd366004610a78565b6102a3565b005b61011d6100f2366004610b12565b60009182526001602090815260408084206001600160a01b0393909316845291905290205460ff1690565b60405190151581526020015b60405180910390f35b61013b60005481565b604051908152602001610129565b61015c610157366004610c08565b610513565b6040516001600160a01b039091168152602001610129565b61013b610182366004610c5e565b610592565b61019a610195366004610d00565b6105bb565b60408051938452602084019290925260ff1690820152606001610129565b61013b6101c6366004610d3c565b61062a565b6101de6101d9366004610dad565b610666565b6040516101299190610ec1565b6101fe6101f9366004610ed4565b6106b6565b604051610129959493929190610ef6565b61011d61021d366004610b12565b600160209081526000928352604080842090915290825290205460ff1681565b61025061024b366004610d3c565b6107a0565b6040516101299190610f36565b61013b61026b366004610f49565b610804565b61011d61027e366004610f62565b610857565b610296610291366004610f49565b6108a1565b6040516101299190610ff8565b806102e65760405162461bcd60e51b815260206004820152600e60248201526d0d2dcecc2d8d2c840d8cadccee8d60931b60448201526064015b60405180910390fd5b60005b818110156104f95760006103288484848181106103085761030861105a565b905060200281019061031a9190611070565b6101d9906040810190611090565b905060006103b0826000015183602001518460400151856060015186608001518a8a8a81811061035a5761035a61105a565b905060200281019061036c9190611070565b6103769080611090565b8080601f01602080910402602001604051908101604052809392919081815260200183838082843760009201919091525061085792505050565b9050806103f95760405162461bcd60e51b8152602060048201526017602482015276696e636c7564657320696e76616c696420766f74696e6760481b60448201526064016102dd565b60608083018051600089815260016020818152604080842089516001600160a01b039081168652908352818520805496151560ff199788161790558d85526002808452828620835160a0810185528c5184168152858d0151818701908152858e0151958201958652995115159a81019a8b526080808e0151908201908152825480890184559289529786902081516005909302018054929094166001600160a01b031990921691909117835597519482019490945590519281019290925594516003820180549115159190941617909255518051929391926104e192600485019201906109df565b505050505080806104f1906110dd565b9150506102e9565b50600080549080610509836110dd565b9190505550505050565b600080600080610522856105bb565b6040805160008152602081018083528b905260ff8316918101919091526060810184905260808101839052929550909350915060019060a0016020604051602081039080840390855afa15801561057d573d6000803e3d6000fd5b5050604051601f190151979650505050505050565b60006105b58260000151836020015184604001518560600151866080015161062a565b92915050565b6000806000835160411461060c5760405162461bcd60e51b81526020600482015260186024820152770d2dcecc2d8d2c840e6d2cedcc2e8eae4ca40d8cadccee8d60431b60448201526064016102dd565b50505060208101516040820151606090920151909260009190911a90565b60008585858585604051602001610645959493929190611106565b60405160208183030381529060405280519060200120905095945050505050565b6106a36040518060a0016040528060006001600160a01b031681526020016000815260200160008152602001600015158152602001606081525090565b6106af82840184610c5e565b9392505050565b600260205281600052604060002081815481106106d257600080fd5b6000918252602090912060059091020180546001820154600283015460038401546004850180546001600160a01b039095169750929550909360ff9091169290919061071d90611158565b80601f016020809104026020016040519081016040528092919081815260200182805461074990611158565b80156107965780601f1061076b57610100808354040283529160200191610796565b820191906000526020600020905b81548152906001019060200180831161077957829003601f168201915b5050505050905085565b606060006040518060a00160405280886001600160a01b031681526020018781526020018681526020018515158152602001848152509050806040516020016107e99190610ec1565b60405160208183030381529060405291505095945050505050565b6040517f19457468657265756d205369676e6564204d6573736167653a0a3332000000006020820152603c8101829052600090605c01604051602081830303815290604052805190602001209050919050565b600080610867888888888861062a565b9050600061087482610804565b9050886001600160a01b031661088a8286610513565b6001600160a01b0316149998505050505050505050565b606060026000838152602001908152602001600020805480602002602001604051908101604052809291908181526020016000905b828210156109d45760008481526020908190206040805160a0810182526005860290920180546001600160a01b03168352600181015493830193909352600283015490820152600382015460ff161515606082015260048201805491929160808401919061094390611158565b80601f016020809104026020016040519081016040528092919081815260200182805461096f90611158565b80156109bc5780601f10610991576101008083540402835291602001916109bc565b820191906000526020600020905b81548152906001019060200180831161099f57829003601f168201915b505050505081525050815260200190600101906108d6565b505050509050919050565b8280546109eb90611158565b90600052602060002090601f016020900481019282610a0d5760008555610a53565b82601f10610a2657805160ff1916838001178555610a53565b82800160010185558215610a53579182015b82811115610a53578251825591602001919060010190610a38565b50610a5f929150610a63565b5090565b5b80821115610a5f5760008155600101610a64565b600080600060408486031215610a8d57600080fd5b8335925060208401356001600160401b0380821115610aab57600080fd5b818601915086601f830112610abf57600080fd5b813581811115610ace57600080fd5b8760208260051b8501011115610ae357600080fd5b6020830194508093505050509250925092565b80356001600160a01b0381168114610b0d57600080fd5b919050565b60008060408385031215610b2557600080fd5b82359150610b3560208401610af6565b90509250929050565b634e487b7160e01b600052604160045260246000fd5b60405160a081016001600160401b0381118282101715610b7657610b76610b3e565b60405290565b600082601f830112610b8d57600080fd5b81356001600160401b0380821115610ba757610ba7610b3e565b604051601f8301601f19908116603f01168101908282118183101715610bcf57610bcf610b3e565b81604052838152866020858801011115610be857600080fd5b836020870160208301376000602085830101528094505050505092915050565b60008060408385031215610c1b57600080fd5b8235915060208301356001600160401b03811115610c3857600080fd5b610c4485828601610b7c565b9150509250929050565b80358015158114610b0d57600080fd5b600060208284031215610c7057600080fd5b81356001600160401b0380821115610c8757600080fd5b9083019060a08286031215610c9b57600080fd5b610ca3610b54565b610cac83610af6565b81526020830135602082015260408301356040820152610cce60608401610c4e565b6060820152608083013582811115610ce557600080fd5b610cf187828601610b7c565b60808301525095945050505050565b600060208284031215610d1257600080fd5b81356001600160401b03811115610d2857600080fd5b610d3484828501610b7c565b949350505050565b600080600080600060a08688031215610d5457600080fd5b610d5d86610af6565b94506020860135935060408601359250610d7960608701610c4e565b915060808601356001600160401b03811115610d9457600080fd5b610da088828901610b7c565b9150509295509295909350565b60008060208385031215610dc057600080fd5b82356001600160401b0380821115610dd757600080fd5b818501915085601f830112610deb57600080fd5b813581811115610dfa57600080fd5b866020828501011115610e0c57600080fd5b60209290920196919550909350505050565b60005b83811015610e39578181015183820152602001610e21565b83811115610e48576000848401525b50505050565b60008151808452610e66816020860160208601610e1e565b601f01601f19169290920160200192915050565b60018060a01b03815116825260208101516020830152604081015160408301526060810151151560608301526000608082015160a06080850152610d3460a0850182610e4e565b6020815260006106af6020830184610e7a565b60008060408385031215610ee757600080fd5b50508035926020909101359150565b60018060a01b0386168152846020820152836040820152821515606082015260a060808201526000610f2b60a0830184610e4e565b979650505050505050565b6020815260006106af6020830184610e4e565b600060208284031215610f5b57600080fd5b5035919050565b60008060008060008060c08789031215610f7b57600080fd5b610f8487610af6565b95506020870135945060408701359350610fa060608801610c4e565b925060808701356001600160401b0380821115610fbc57600080fd5b610fc88a838b01610b7c565b935060a0890135915080821115610fde57600080fd5b50610feb89828a01610b7c565b9150509295509295509295565b6000602080830181845280855180835260408601915060408160051b870101925083870160005b8281101561104d57603f1988860301845261103b858351610e7a565b9450928501929085019060010161101f565b5092979650505050505050565b634e487b7160e01b600052603260045260246000fd5b60008235605e1983360301811261108657600080fd5b9190910192915050565b6000808335601e198436030181126110a757600080fd5b8301803591506001600160401b038211156110c157600080fd5b6020019150368190038213156110d657600080fd5b9250929050565b60006000198214156110ff57634e487b7160e01b600052601160045260246000fd5b5060010190565b6bffffffffffffffffffffffff198660601b16815284601482015283603482015282151560f81b605482015260008251611147816055850160208701610e1e565b919091016055019695505050505050565b600181811c9082168061116c57607f821691505b6020821081141561118d57634e487b7160e01b600052602260045260246000fd5b5091905056fea2646970667358221220b428d6b83fa86f6f685a26a624b156704ee356bbf562bf51c187a63ed7c71a0a64736f6c63430008090033",
  "linkReferences": {},
  "deployedLinkReferences": {}
}